{
  "_format": "hh-sol-artifact-1",
  "contractName": "StakePYR",
  "sourceName": "contracts/staking.sol",
  "abi": [
    {
      "inputs": [
        {
          "internalType": "contract Token",
          "name": "_tokenAddress",
          "type": "address"
        }
      ],
      "stateMutability": "nonpayable",
      "type": "constructor"
    },
    {
      "anonymous": false,
      "inputs": [
        {
          "indexed": true,
          "internalType": "address",
          "name": "from",
          "type": "address"
        },
        {
          "indexed": false,
          "internalType": "uint256",
          "name": "amount",
          "type": "uint256"
        }
      ],
      "name": "Claimed",
      "type": "event"
    },
    {
      "anonymous": false,
      "inputs": [
        {
          "indexed": true,
          "internalType": "address",
          "name": "previousOwner",
          "type": "address"
        },
        {
          "indexed": true,
          "internalType": "address",
          "name": "newOwner",
          "type": "address"
        }
      ],
      "name": "OwnershipTransferred",
      "type": "event"
    },
    {
      "anonymous": false,
      "inputs": [
        {
          "indexed": false,
          "internalType": "address",
          "name": "account",
          "type": "address"
        }
      ],
      "name": "Paused",
      "type": "event"
    },
    {
      "anonymous": false,
      "inputs": [
        {
          "indexed": true,
          "internalType": "address",
          "name": "from",
          "type": "address"
        },
        {
          "indexed": false,
          "internalType": "uint256",
          "name": "amount",
          "type": "uint256"
        }
      ],
      "name": "Staked",
      "type": "event"
    },
    {
      "anonymous": false,
      "inputs": [
        {
          "indexed": false,
          "internalType": "address",
          "name": "account",
          "type": "address"
        }
      ],
      "name": "Unpaused",
      "type": "event"
    },
    {
      "inputs": [
        {
          "internalType": "address",
          "name": "",
          "type": "address"
        }
      ],
      "name": "addressStaked",
      "outputs": [
        {
          "internalType": "bool",
          "name": "",
          "type": "bool"
        }
      ],
      "stateMutability": "view",
      "type": "function"
    },
    {
      "inputs": [],
      "name": "claimReward",
      "outputs": [
        {
          "internalType": "bool",
          "name": "",
          "type": "bool"
        }
      ],
      "stateMutability": "nonpayable",
      "type": "function"
    },
    {
      "inputs": [],
      "name": "getTokenExpiry",
      "outputs": [
        {
          "internalType": "uint256",
          "name": "",
          "type": "uint256"
        }
      ],
      "stateMutability": "view",
      "type": "function"
    },
    {
      "inputs": [],
      "name": "interestRate",
      "outputs": [
        {
          "internalType": "uint8",
          "name": "",
          "type": "uint8"
        }
      ],
      "stateMutability": "view",
      "type": "function"
    },
    {
      "inputs": [],
      "name": "owner",
      "outputs": [
        {
          "internalType": "address",
          "name": "",
          "type": "address"
        }
      ],
      "stateMutability": "view",
      "type": "function"
    },
    {
      "inputs": [],
      "name": "pause",
      "outputs": [],
      "stateMutability": "nonpayable",
      "type": "function"
    },
    {
      "inputs": [],
      "name": "paused",
      "outputs": [
        {
          "internalType": "bool",
          "name": "",
          "type": "bool"
        }
      ],
      "stateMutability": "view",
      "type": "function"
    },
    {
      "inputs": [],
      "name": "planDuration",
      "outputs": [
        {
          "internalType": "uint256",
          "name": "",
          "type": "uint256"
        }
      ],
      "stateMutability": "view",
      "type": "function"
    },
    {
      "inputs": [],
      "name": "planExpired",
      "outputs": [
        {
          "internalType": "uint256",
          "name": "",
          "type": "uint256"
        }
      ],
      "stateMutability": "view",
      "type": "function"
    },
    {
      "inputs": [],
      "name": "renounceOwnership",
      "outputs": [],
      "stateMutability": "nonpayable",
      "type": "function"
    },
    {
      "inputs": [
        {
          "internalType": "address",
          "name": "",
          "type": "address"
        }
      ],
      "name": "stakeInfos",
      "outputs": [
        {
          "internalType": "uint256",
          "name": "startTS",
          "type": "uint256"
        },
        {
          "internalType": "uint256",
          "name": "endTS",
          "type": "uint256"
        },
        {
          "internalType": "uint256",
          "name": "amount",
          "type": "uint256"
        },
        {
          "internalType": "uint256",
          "name": "claimed",
          "type": "uint256"
        }
      ],
      "stateMutability": "view",
      "type": "function"
    },
    {
      "inputs": [
        {
          "internalType": "uint256",
          "name": "stakeAmount",
          "type": "uint256"
        }
      ],
      "name": "stakeToken",
      "outputs": [],
      "stateMutability": "payable",
      "type": "function"
    },
    {
      "inputs": [],
      "name": "totalStakers",
      "outputs": [
        {
          "internalType": "uint8",
          "name": "",
          "type": "uint8"
        }
      ],
      "stateMutability": "view",
      "type": "function"
    },
    {
      "inputs": [
        {
          "internalType": "address",
          "name": "newOwner",
          "type": "address"
        }
      ],
      "name": "transferOwnership",
      "outputs": [],
      "stateMutability": "nonpayable",
      "type": "function"
    },
    {
      "inputs": [
        {
          "internalType": "address",
          "name": "to",
          "type": "address"
        },
        {
          "internalType": "uint256",
          "name": "amount",
          "type": "uint256"
        }
      ],
      "name": "transferToken",
      "outputs": [],
      "stateMutability": "nonpayable",
      "type": "function"
    },
    {
      "inputs": [],
      "name": "unpause",
      "outputs": [],
      "stateMutability": "nonpayable",
      "type": "function"
    }
  ],
  "bytecode": "0x608060405262278d0060035562ed4e006004556020600560006101000a81548160ff021916908360ff1602179055503480156200003b57600080fd5b5060405162001f5b38038062001f5b8339818101604052810190620000619190620002d9565b60008060006101000a81548160ff0219169083151502179055506200009b6200008f6200018e60201b60201c565b6200019660201b60201c565b60018081905550600073ffffffffffffffffffffffffffffffffffffffff168173ffffffffffffffffffffffffffffffffffffffff160362000114576040517f08c379a00000000000000000000000000000000000000000000000000000000081526004016200010b9062000392565b60405180910390fd5b80600260006101000a81548173ffffffffffffffffffffffffffffffffffffffff021916908373ffffffffffffffffffffffffffffffffffffffff16021790555060045442620001659190620003ed565b6006819055506000600760006101000a81548160ff021916908360ff1602179055505062000428565b600033905090565b60008060019054906101000a900473ffffffffffffffffffffffffffffffffffffffff16905081600060016101000a81548173ffffffffffffffffffffffffffffffffffffffff021916908373ffffffffffffffffffffffffffffffffffffffff1602179055508173ffffffffffffffffffffffffffffffffffffffff168173ffffffffffffffffffffffffffffffffffffffff167f8be0079c531659141344cd1fd0a4f28419497f9722a3daafe3b4186f6b6457e060405160405180910390a35050565b600080fd5b600073ffffffffffffffffffffffffffffffffffffffff82169050919050565b60006200028d8262000260565b9050919050565b6000620002a18262000280565b9050919050565b620002b38162000294565b8114620002bf57600080fd5b50565b600081519050620002d381620002a8565b92915050565b600060208284031215620002f257620002f16200025b565b5b60006200030284828501620002c2565b91505092915050565b600082825260208201905092915050565b7f546f6b656e20416464726573732063616e6e6f7420626520616464726573732060008201527f3000000000000000000000000000000000000000000000000000000000000000602082015250565b60006200037a6021836200030b565b915062000387826200031c565b604082019050919050565b60006020820190508181036000830152620003ad816200036b565b9050919050565b6000819050919050565b7f4e487b7100000000000000000000000000000000000000000000000000000000600052601160045260246000fd5b6000620003fa82620003b4565b91506200040783620003b4565b9250828201905080821115620004225762000421620003be565b5b92915050565b611b2380620004386000396000f3fe6080604052600436106100f35760003560e01c80638da5cb5b1161008a578063cda6b84711610059578063cda6b847146102be578063dfbf9def146102da578063e74d059f1461031a578063f2fde38b14610357576100f3565b80638da5cb5b146102125780639ffca9061461023d578063b88a802f14610268578063bfb5718d14610293576100f3565b8063715018a6116100c6578063715018a61461018e5780637c3a00fd146101a55780638456cb59146101d057806386989038146101e7576100f3565b80631072cbea146100f85780633f4ba83a1461012157806351be4324146101385780635c975abb14610163575b600080fd5b34801561010457600080fd5b5061011f600480360381019061011a91906111dd565b610380565b005b34801561012d57600080fd5b5061013661046b565b005b34801561014457600080fd5b5061014d61047d565b60405161015a919061122c565b60405180910390f35b34801561016f57600080fd5b50610178610483565b6040516101859190611262565b60405180910390f35b34801561019a57600080fd5b506101a3610499565b005b3480156101b157600080fd5b506101ba6104ad565b6040516101c79190611299565b60405180910390f35b3480156101dc57600080fd5b506101e56104c0565b005b3480156101f357600080fd5b506101fc6104d2565b6040516102099190611299565b60405180910390f35b34801561021e57600080fd5b506102276104e5565b60405161023491906112c3565b60405180910390f35b34801561024957600080fd5b5061025261050e565b60405161025f919061122c565b60405180910390f35b34801561027457600080fd5b5061027d6105f9565b60405161028a9190611262565b60405180910390f35b34801561029f57600080fd5b506102a8610982565b6040516102b5919061122c565b60405180910390f35b6102d860048036038101906102d391906112de565b610988565b005b3480156102e657600080fd5b5061030160048036038101906102fc919061130b565b610dcf565b6040516103119493929190611338565b60405180910390f35b34801561032657600080fd5b50610341600480360381019061033c919061130b565b610dff565b60405161034e9190611262565b60405180910390f35b34801561036357600080fd5b5061037e6004803603810190610379919061130b565b610e1f565b005b610388610ea2565b600260009054906101000a900473ffffffffffffffffffffffffffffffffffffffff1673ffffffffffffffffffffffffffffffffffffffff1663a9059cbb83836040518363ffffffff1660e01b81526004016103e592919061137d565b6020604051808303816000875af1158015610404573d6000803e3d6000fd5b505050506040513d601f19601f8201168201806040525081019061042891906113d2565b610467576040517f08c379a000000000000000000000000000000000000000000000000000000000815260040161045e9061145c565b60405180910390fd5b5050565b610473610ea2565b61047b610f20565b565b60065481565b60008060009054906101000a900460ff16905090565b6104a1610ea2565b6104ab6000610f82565b565b600560009054906101000a900460ff1681565b6104c8610ea2565b6104d0611047565b565b600760009054906101000a900460ff1681565b60008060019054906101000a900473ffffffffffffffffffffffffffffffffffffffff16905090565b600060011515600960006105206110a9565b73ffffffffffffffffffffffffffffffffffffffff1673ffffffffffffffffffffffffffffffffffffffff16815260200190815260200160002060009054906101000a900460ff161515146105aa576040517f08c379a00000000000000000000000000000000000000000000000000000000081526004016105a1906114c8565b60405180910390fd5b600860006105b66110a9565b73ffffffffffffffffffffffffffffffffffffffff1673ffffffffffffffffffffffffffffffffffffffff16815260200190815260200160002060010154905090565b6000600115156009600061060b6110a9565b73ffffffffffffffffffffffffffffffffffffffff1673ffffffffffffffffffffffffffffffffffffffff16815260200190815260200160002060009054906101000a900460ff16151514610695576040517f08c379a000000000000000000000000000000000000000000000000000000000815260040161068c906114c8565b60405180910390fd5b42600860006106a26110a9565b73ffffffffffffffffffffffffffffffffffffffff1673ffffffffffffffffffffffffffffffffffffffff1681526020019081526020016000206001015410610720576040517f08c379a000000000000000000000000000000000000000000000000000000000815260040161071790611534565b60405180910390fd5b60006008600061072e6110a9565b73ffffffffffffffffffffffffffffffffffffffff1673ffffffffffffffffffffffffffffffffffffffff16815260200190815260200160002060030154146107ac576040517f08c379a00000000000000000000000000000000000000000000000000000000081526004016107a3906115a0565b60405180910390fd5b6000600860006107ba6110a9565b73ffffffffffffffffffffffffffffffffffffffff1673ffffffffffffffffffffffffffffffffffffffff16815260200190815260200160002060020154905060006064600560009054906101000a900460ff1660ff168361081c91906115ef565b6108269190611660565b826108319190611691565b905080600860006108406110a9565b73ffffffffffffffffffffffffffffffffffffffff1673ffffffffffffffffffffffffffffffffffffffff1681526020019081526020016000205050600260009054906101000a900473ffffffffffffffffffffffffffffffffffffffff1673ffffffffffffffffffffffffffffffffffffffff1663a9059cbb6108c26110a9565b836040518363ffffffff1660e01b81526004016108e092919061137d565b6020604051808303816000875af11580156108ff573d6000803e3d6000fd5b505050506040513d601f19601f8201168201806040525081019061092391906113d2565b5061092c6110a9565b73ffffffffffffffffffffffffffffffffffffffff167fd8138f8a3f377c5259ca548e70e4c2de94f129f5a11036a15b69513cba2b426a82604051610971919061122c565b60405180910390a260019250505090565b60035481565b6109906110b1565b600081116109d3576040517f08c379a00000000000000000000000000000000000000000000000000000000081526004016109ca90611711565b60405180910390fd5b6006544210610a17576040517f08c379a0000000000000000000000000000000000000000000000000000000008152600401610a0e9061177d565b60405180910390fd5b6000151560096000610a276110a9565b73ffffffffffffffffffffffffffffffffffffffff1673ffffffffffffffffffffffffffffffffffffffff16815260200190815260200160002060009054906101000a900460ff16151514610ab1576040517f08c379a0000000000000000000000000000000000000000000000000000000008152600401610aa8906117e9565b60405180910390fd5b80600260009054906101000a900473ffffffffffffffffffffffffffffffffffffffff1673ffffffffffffffffffffffffffffffffffffffff166370a08231610af86110a9565b6040518263ffffffff1660e01b8152600401610b1491906112c3565b602060405180830381865afa158015610b31573d6000803e3d6000fd5b505050506040513d601f19601f82011682018060405250810190610b55919061181e565b1015610b96576040517f08c379a0000000000000000000000000000000000000000000000000000000008152600401610b8d90611897565b60405180910390fd5b600260009054906101000a900473ffffffffffffffffffffffffffffffffffffffff1673ffffffffffffffffffffffffffffffffffffffff166323b872dd610bdc6110a9565b30846040518463ffffffff1660e01b8152600401610bfc939291906118b7565b6020604051808303816000875af1158015610c1b573d6000803e3d6000fd5b505050506040513d601f19601f82011682018060405250810190610c3f919061181e565b506007600081819054906101000a900460ff1680929190610c5f906118ee565b91906101000a81548160ff021916908360ff16021790555050600160096000610c866110a9565b73ffffffffffffffffffffffffffffffffffffffff1673ffffffffffffffffffffffffffffffffffffffff16815260200190815260200160002060006101000a81548160ff021916908315150217905550604051806080016040528042815260200160035442610cf69190611691565b8152602001828152602001600081525060086000610d126110a9565b73ffffffffffffffffffffffffffffffffffffffff1673ffffffffffffffffffffffffffffffffffffffff16815260200190815260200160002060008201518160000155602082015181600101556040820151816002015560608201518160030155905050610d7f6110a9565b73ffffffffffffffffffffffffffffffffffffffff167f9e71bc8eea02a63969f509818f2dafb9254532904319f9dbda79b67bd34a5f3d82604051610dc4919061122c565b60405180910390a250565b60086020528060005260406000206000915090508060000154908060010154908060020154908060030154905084565b60096020528060005260406000206000915054906101000a900460ff1681565b610e27610ea2565b600073ffffffffffffffffffffffffffffffffffffffff168173ffffffffffffffffffffffffffffffffffffffff1603610e96576040517f08c379a0000000000000000000000000000000000000000000000000000000008152600401610e8d90611989565b60405180910390fd5b610e9f81610f82565b50565b610eaa6110a9565b73ffffffffffffffffffffffffffffffffffffffff16610ec86104e5565b73ffffffffffffffffffffffffffffffffffffffff1614610f1e576040517f08c379a0000000000000000000000000000000000000000000000000000000008152600401610f15906119f5565b60405180910390fd5b565b610f286110fb565b60008060006101000a81548160ff0219169083151502179055507f5db9ee0a495bf2e6ff9c91a7834c1ba4fdd244a5e8aa4e537bd38aeae4b073aa610f6b6110a9565b604051610f7891906112c3565b60405180910390a1565b60008060019054906101000a900473ffffffffffffffffffffffffffffffffffffffff16905081600060016101000a81548173ffffffffffffffffffffffffffffffffffffffff021916908373ffffffffffffffffffffffffffffffffffffffff1602179055508173ffffffffffffffffffffffffffffffffffffffff168173ffffffffffffffffffffffffffffffffffffffff167f8be0079c531659141344cd1fd0a4f28419497f9722a3daafe3b4186f6b6457e060405160405180910390a35050565b61104f6110b1565b60016000806101000a81548160ff0219169083151502179055507f62e78cea01bee320cd4e420270b5ea74000d11b0c9f74754ebdbfc544b05a2586110926110a9565b60405161109f91906112c3565b60405180910390a1565b600033905090565b6110b9610483565b156110f9576040517f08c379a00000000000000000000000000000000000000000000000000000000081526004016110f090611a61565b60405180910390fd5b565b611103610483565b611142576040517f08c379a000000000000000000000000000000000000000000000000000000000815260040161113990611acd565b60405180910390fd5b565b600080fd5b600073ffffffffffffffffffffffffffffffffffffffff82169050919050565b600061117482611149565b9050919050565b61118481611169565b811461118f57600080fd5b50565b6000813590506111a18161117b565b92915050565b6000819050919050565b6111ba816111a7565b81146111c557600080fd5b50565b6000813590506111d7816111b1565b92915050565b600080604083850312156111f4576111f3611144565b5b600061120285828601611192565b9250506020611213858286016111c8565b9150509250929050565b611226816111a7565b82525050565b6000602082019050611241600083018461121d565b92915050565b60008115159050919050565b61125c81611247565b82525050565b60006020820190506112776000830184611253565b92915050565b600060ff82169050919050565b6112938161127d565b82525050565b60006020820190506112ae600083018461128a565b92915050565b6112bd81611169565b82525050565b60006020820190506112d860008301846112b4565b92915050565b6000602082840312156112f4576112f3611144565b5b6000611302848285016111c8565b91505092915050565b60006020828403121561132157611320611144565b5b600061132f84828501611192565b91505092915050565b600060808201905061134d600083018761121d565b61135a602083018661121d565b611367604083018561121d565b611374606083018461121d565b95945050505050565b600060408201905061139260008301856112b4565b61139f602083018461121d565b9392505050565b6113af81611247565b81146113ba57600080fd5b50565b6000815190506113cc816113a6565b92915050565b6000602082840312156113e8576113e7611144565b5b60006113f6848285016113bd565b91505092915050565b600082825260208201905092915050565b7f546f6b656e207472616e73666572206661696c65642100000000000000000000600082015250565b60006114466016836113ff565b915061145182611410565b602082019050919050565b6000602082019050818103600083015261147581611439565b9050919050565b7f596f7520617265206e6f74207061727469636970617465640000000000000000600082015250565b60006114b26018836113ff565b91506114bd8261147c565b602082019050919050565b600060208201905081810360008301526114e1816114a5565b9050919050565b7f5374616b652054696d65206973206e6f74206f76657220796574000000000000600082015250565b600061151e601a836113ff565b9150611529826114e8565b602082019050919050565b6000602082019050818103600083015261154d81611511565b9050919050565b7f416c726561647920636c61696d65640000000000000000000000000000000000600082015250565b600061158a600f836113ff565b915061159582611554565b602082019050919050565b600060208201905081810360008301526115b98161157d565b9050919050565b7f4e487b7100000000000000000000000000000000000000000000000000000000600052601160045260246000fd5b60006115fa826111a7565b9150611605836111a7565b9250828202611613816111a7565b9150828204841483151761162a576116296115c0565b5b5092915050565b7f4e487b7100000000000000000000000000000000000000000000000000000000600052601260045260246000fd5b600061166b826111a7565b9150611676836111a7565b92508261168657611685611631565b5b828204905092915050565b600061169c826111a7565b91506116a7836111a7565b92508282019050808211156116bf576116be6115c0565b5b92915050565b7f5374616b6520616d6f756e742073686f756c6420626520636f72726563740000600082015250565b60006116fb601e836113ff565b9150611706826116c5565b602082019050919050565b6000602082019050818103600083015261172a816116ee565b9050919050565b7f506c616e20457870697265640000000000000000000000000000000000000000600082015250565b6000611767600c836113ff565b915061177282611731565b602082019050919050565b600060208201905081810360008301526117968161175a565b9050919050565b7f596f7520616c7265616479207061727469636970617465640000000000000000600082015250565b60006117d36018836113ff565b91506117de8261179d565b602082019050919050565b60006020820190508181036000830152611802816117c6565b9050919050565b600081519050611818816111b1565b92915050565b60006020828403121561183457611833611144565b5b600061184284828501611809565b91505092915050565b7f496e73756666696369656e742042616c616e6365000000000000000000000000600082015250565b60006118816014836113ff565b915061188c8261184b565b602082019050919050565b600060208201905081810360008301526118b081611874565b9050919050565b60006060820190506118cc60008301866112b4565b6118d960208301856112b4565b6118e6604083018461121d565b949350505050565b60006118f98261127d565b915060ff820361190c5761190b6115c0565b5b600182019050919050565b7f4f776e61626c653a206e6577206f776e657220697320746865207a65726f206160008201527f6464726573730000000000000000000000000000000000000000000000000000602082015250565b60006119736026836113ff565b915061197e82611917565b604082019050919050565b600060208201905081810360008301526119a281611966565b9050919050565b7f4f776e61626c653a2063616c6c6572206973206e6f7420746865206f776e6572600082015250565b60006119df6020836113ff565b91506119ea826119a9565b602082019050919050565b60006020820190508181036000830152611a0e816119d2565b9050919050565b7f5061757361626c653a2070617573656400000000000000000000000000000000600082015250565b6000611a4b6010836113ff565b9150611a5682611a15565b602082019050919050565b60006020820190508181036000830152611a7a81611a3e565b9050919050565b7f5061757361626c653a206e6f7420706175736564000000000000000000000000600082015250565b6000611ab76014836113ff565b9150611ac282611a81565b602082019050919050565b60006020820190508181036000830152611ae681611aaa565b905091905056fea264697066735822122078814e65a58b712222bef0a5cb77096f39b0ed40a2ee892fdd180a306687953364736f6c63430008110033",
  "linkReferences": {},
  "deployedLinkReferences": {}
}